{
	"data": {
		"bytecode": {
			"linkReferences": {},
			"object": "608060405234801561001057600080fd5b5061029f806100206000396000f3fe608060405234801561001057600080fd5b50600436106100575760003560e01c80632e86bbd81461005c5780637f6f9cb51461007a57806382882f8a14610098578063a20baee6146100b6578063f92d3433146100d4575b600080fd5b6100646100f2565b604051610071919061015b565b60405180910390f35b61008261010a565b60405161008f919061015b565b60405180910390f35b6100a061010f565b6040516100ad919061015b565b60405180910390f35b6100be61011b565b6040516100cb919061015b565b60405180910390f35b6100dc610127565b6040516100e9919061015b565b60405180910390f35b670de0b6b3a764000060c861010791906101a7565b81565b60c881565b670f43fc2c04ee000081565b670de0b6b3a764000081565b60056103e8670de0b6b3a764000061013f9190610176565b61014991906101a7565b81565b61015581610201565b82525050565b6000602082019050610170600083018461014c565b92915050565b600061018182610201565b915061018c83610201565b92508261019c5761019b61023a565b5b828204905092915050565b60006101b282610201565b91506101bd83610201565b9250817fffffffffffffffffffffffffffffffffffffffffffffffffffffffffffffffff04831182151516156101f6576101f561020b565b5b828202905092915050565b6000819050919050565b7f4e487b7100000000000000000000000000000000000000000000000000000000600052601160045260246000fd5b7f4e487b7100000000000000000000000000000000000000000000000000000000600052601260045260246000fdfea2646970667358221220e4426a901bd7936a24a166f667d1d853b4e329e0c5c6bba3487b62250579ec1864736f6c63430008070033",
			"opcodes": "PUSH1 0x80 PUSH1 0x40 MSTORE CALLVALUE DUP1 ISZERO PUSH2 0x10 JUMPI PUSH1 0x0 DUP1 REVERT JUMPDEST POP PUSH2 0x29F DUP1 PUSH2 0x20 PUSH1 0x0 CODECOPY PUSH1 0x0 RETURN INVALID PUSH1 0x80 PUSH1 0x40 MSTORE CALLVALUE DUP1 ISZERO PUSH2 0x10 JUMPI PUSH1 0x0 DUP1 REVERT JUMPDEST POP PUSH1 0x4 CALLDATASIZE LT PUSH2 0x57 JUMPI PUSH1 0x0 CALLDATALOAD PUSH1 0xE0 SHR DUP1 PUSH4 0x2E86BBD8 EQ PUSH2 0x5C JUMPI DUP1 PUSH4 0x7F6F9CB5 EQ PUSH2 0x7A JUMPI DUP1 PUSH4 0x82882F8A EQ PUSH2 0x98 JUMPI DUP1 PUSH4 0xA20BAEE6 EQ PUSH2 0xB6 JUMPI DUP1 PUSH4 0xF92D3433 EQ PUSH2 0xD4 JUMPI JUMPDEST PUSH1 0x0 DUP1 REVERT JUMPDEST PUSH2 0x64 PUSH2 0xF2 JUMP JUMPDEST PUSH1 0x40 MLOAD PUSH2 0x71 SWAP2 SWAP1 PUSH2 0x15B JUMP JUMPDEST PUSH1 0x40 MLOAD DUP1 SWAP2 SUB SWAP1 RETURN JUMPDEST PUSH2 0x82 PUSH2 0x10A JUMP JUMPDEST PUSH1 0x40 MLOAD PUSH2 0x8F SWAP2 SWAP1 PUSH2 0x15B JUMP JUMPDEST PUSH1 0x40 MLOAD DUP1 SWAP2 SUB SWAP1 RETURN JUMPDEST PUSH2 0xA0 PUSH2 0x10F JUMP JUMPDEST PUSH1 0x40 MLOAD PUSH2 0xAD SWAP2 SWAP1 PUSH2 0x15B JUMP JUMPDEST PUSH1 0x40 MLOAD DUP1 SWAP2 SUB SWAP1 RETURN JUMPDEST PUSH2 0xBE PUSH2 0x11B JUMP JUMPDEST PUSH1 0x40 MLOAD PUSH2 0xCB SWAP2 SWAP1 PUSH2 0x15B JUMP JUMPDEST PUSH1 0x40 MLOAD DUP1 SWAP2 SUB SWAP1 RETURN JUMPDEST PUSH2 0xDC PUSH2 0x127 JUMP JUMPDEST PUSH1 0x40 MLOAD PUSH2 0xE9 SWAP2 SWAP1 PUSH2 0x15B JUMP JUMPDEST PUSH1 0x40 MLOAD DUP1 SWAP2 SUB SWAP1 RETURN JUMPDEST PUSH8 0xDE0B6B3A7640000 PUSH1 0xC8 PUSH2 0x107 SWAP2 SWAP1 PUSH2 0x1A7 JUMP JUMPDEST DUP2 JUMP JUMPDEST PUSH1 0xC8 DUP2 JUMP JUMPDEST PUSH8 0xF43FC2C04EE0000 DUP2 JUMP JUMPDEST PUSH8 0xDE0B6B3A7640000 DUP2 JUMP JUMPDEST PUSH1 0x5 PUSH2 0x3E8 PUSH8 0xDE0B6B3A7640000 PUSH2 0x13F SWAP2 SWAP1 PUSH2 0x176 JUMP JUMPDEST PUSH2 0x149 SWAP2 SWAP1 PUSH2 0x1A7 JUMP JUMPDEST DUP2 JUMP JUMPDEST PUSH2 0x155 DUP2 PUSH2 0x201 JUMP JUMPDEST DUP3 MSTORE POP POP JUMP JUMPDEST PUSH1 0x0 PUSH1 0x20 DUP3 ADD SWAP1 POP PUSH2 0x170 PUSH1 0x0 DUP4 ADD DUP5 PUSH2 0x14C JUMP JUMPDEST SWAP3 SWAP2 POP POP JUMP JUMPDEST PUSH1 0x0 PUSH2 0x181 DUP3 PUSH2 0x201 JUMP JUMPDEST SWAP2 POP PUSH2 0x18C DUP4 PUSH2 0x201 JUMP JUMPDEST SWAP3 POP DUP3 PUSH2 0x19C JUMPI PUSH2 0x19B PUSH2 0x23A JUMP JUMPDEST JUMPDEST DUP3 DUP3 DIV SWAP1 POP SWAP3 SWAP2 POP POP JUMP JUMPDEST PUSH1 0x0 PUSH2 0x1B2 DUP3 PUSH2 0x201 JUMP JUMPDEST SWAP2 POP PUSH2 0x1BD DUP4 PUSH2 0x201 JUMP JUMPDEST SWAP3 POP DUP2 PUSH32 0xFFFFFFFFFFFFFFFFFFFFFFFFFFFFFFFFFFFFFFFFFFFFFFFFFFFFFFFFFFFFFFFF DIV DUP4 GT DUP3 ISZERO ISZERO AND ISZERO PUSH2 0x1F6 JUMPI PUSH2 0x1F5 PUSH2 0x20B JUMP JUMPDEST JUMPDEST DUP3 DUP3 MUL SWAP1 POP SWAP3 SWAP2 POP POP JUMP JUMPDEST PUSH1 0x0 DUP2 SWAP1 POP SWAP2 SWAP1 POP JUMP JUMPDEST PUSH32 0x4E487B7100000000000000000000000000000000000000000000000000000000 PUSH1 0x0 MSTORE PUSH1 0x11 PUSH1 0x4 MSTORE PUSH1 0x24 PUSH1 0x0 REVERT JUMPDEST PUSH32 0x4E487B7100000000000000000000000000000000000000000000000000000000 PUSH1 0x0 MSTORE PUSH1 0x12 PUSH1 0x4 MSTORE PUSH1 0x24 PUSH1 0x0 REVERT INVALID LOG2 PUSH5 0x6970667358 0x22 SLT KECCAK256 0xE4 TIMESTAMP PUSH11 0x901BD7936A24A166F667D1 0xD8 MSTORE8 0xB4 0xE3 0x29 0xE0 0xC5 0xC6 0xBB LOG3 BASEFEE PUSH28 0x62250579EC1864736F6C634300080700330000000000000000000000 "
		},
		"gasEstimates": {
			"creation": {
				"codeDepositCost": "134200",
				"executionCost": "177",
				"totalCost": "134377"
			},
			"external": {
				"BORROWING_FEE_DIVISOR()": "329",
				"BORROWING_FEE_FLOOR()": "infinite",
				"DECIMAL_PRECISION()": "373",
				"LUSD_GAS_COMPENSATION()": "infinite",
				"MINIMUM_COLLATERAL_RATIO()": "351"
			}
		},
		"methodIdentifiers": {
			"BORROWING_FEE_DIVISOR()": "7f6f9cb5",
			"BORROWING_FEE_FLOOR()": "f92d3433",
			"DECIMAL_PRECISION()": "a20baee6",
			"LUSD_GAS_COMPENSATION()": "2e86bbd8",
			"MINIMUM_COLLATERAL_RATIO()": "82882f8a"
		}
	},
	"abi": [
		{
			"inputs": [],
			"name": "BORROWING_FEE_DIVISOR",
			"outputs": [
				{
					"internalType": "uint256",
					"name": "",
					"type": "uint256"
				}
			],
			"stateMutability": "view",
			"type": "function"
		},
		{
			"inputs": [],
			"name": "BORROWING_FEE_FLOOR",
			"outputs": [
				{
					"internalType": "uint256",
					"name": "",
					"type": "uint256"
				}
			],
			"stateMutability": "view",
			"type": "function"
		},
		{
			"inputs": [],
			"name": "DECIMAL_PRECISION",
			"outputs": [
				{
					"internalType": "uint256",
					"name": "",
					"type": "uint256"
				}
			],
			"stateMutability": "view",
			"type": "function"
		},
		{
			"inputs": [],
			"name": "LUSD_GAS_COMPENSATION",
			"outputs": [
				{
					"internalType": "uint256",
					"name": "",
					"type": "uint256"
				}
			],
			"stateMutability": "view",
			"type": "function"
		},
		{
			"inputs": [],
			"name": "MINIMUM_COLLATERAL_RATIO",
			"outputs": [
				{
					"internalType": "uint256",
					"name": "",
					"type": "uint256"
				}
			],
			"stateMutability": "view",
			"type": "function"
		}
	]
}